S019000046534D2D4D65616C795F6D616368696E652E73726563CC
S11300000C942A000C943C000C943C000C943C008E
S11300100C943C000C943C000C943C000C943C006C
S11300200C943C000C943C000C9438010C94110189
S11300300C943C000C943C000C943C000C943C004C
S11300400C943C000C943C000C943C000C943C003C
S11300500C943C0011241FBECFE5D8E0DEBFCDBF19
S113006020E0A0E6B0E001C01D92A636B207E1F799
S11300700E9492000C9489020C94000090916000FC
S11300809130D1F028F0923049F19330C9F10895BC
S1130090813009F046C080916100811106C081E081
S11300A00E94A50081E08093610089E10E94F10033
S11300B081E0809360000895882349F0813089F5B8
S11300C082E30E94F10082E08093600008950E9420
S11300D0010110926100109260000895882349F094
S11300E08130F9F484E60E94F10083E0809360009B
S11300F008950E9401011092610010926000089519
S1130100882349F0813069F489E10E94F10081E09B
S11301108093600008950E94010110926100109282
S113012060000895A098A198A89AA99A989905C0E2
S1130130989BFECF81E00E943E009999F7CF999B4E
S1130140FECF80E00E943E00F1CFBB9A93B79F7E22
S113015093BF93B7906293BF93B7906493BF93B7E1
S1130160986093BF8330F9F028F4813041F08230F5
S113017081F00895843009F1853049F1089583B7F9
S1130180816083BF83B78D7F83BF83B78B7F83BF3A
S1130190089583B78E7F83BF83B7826083BF83B79D
S11301A08B7F83BF089583B7816083BF83B78260E9
S11301B083BF83B78B7F83BF089583B78E7F83BF4D
S11301C083B78D7F83BF83B7846083BF089583B76C
S11301D0816083BF83B78D7F83BF83B7846083BF10
S11301E00895682F70E080E090E00E94900123E37E
S11301F033E343E250E40E94F4010E945F016CBFC8
S1130200089583B78E7F83BF83B78D7F83BF83B702
S11302108B7F83BF83B7806183BF83B78F7D83BFA9
S113022008951F920F920FB60F9211242F933F93AC
S11302304F935F936F937F938F939F93AF93BF93EA
S1130240EF93FF93E0916200F09163000995FF91B1
S1130250EF91BF91AF919F918F917F916F915F913A
S11302604F913F912F910F900FBE0F901F901895B3
S11302701F920F920FB60F9211242F933F934F9317
S11302805F936F937F938F939F93AF93BF93EF93FA
S1130290FF93E0916400F09165000995FF91EF915F
S11302A0BF91AF919F918F917F916F915F914F918A
S11302B03F912F910F900FBE0F901F9018950E94A1
S11302C0D30188F09F5798F0B92F9927B751B0F010
S11302D0E1F0660F771F881F991F1AF0BA95C9F7C6
S11302E014C0B13091F00E94ED01B1E008950C9476
S11302F0ED01672F782F8827B85F39F0B93FCCF329
S1130300869577956795B395D9F73EF49095809542
S1130310709561957F4F8F4F9F4F0895E89409C062
S113032097FB3EF490958095709561957F4F8F4F24
S11303309F4F9923A9F0F92F96E9BB279395F6953A
S1130340879577956795B795F111F8CFFAF4BB0FB8
S113035011F460FF1BC06F5F7F4F8F4F9F4F16C01C
S1130360882311F096E911C0772321F09EE8872FA6
S1130370762F05C0662371F096E8862F70E060E062
S11303802AF09A95660F771F881FDAF7880F9695DB
S1130390879597F9089557FD9058440F551F59F0C4
S11303A05F3F71F04795880F97FB991F61F09F3F5E
S11303B079F087950895121613061406551FF2CF87
S11303C04695F1DF08C0161617061806991FF1CFD7
S11303D086957105610508940895E894BB276627FE
S11303E07727CB0197F908950E9407020C947802AD
S11303F00E946A0238F00E94710220F0952311F0E5
S11304000C9461020C94670211240C94EE010E9476
S1130410CB0170F3959FC1F3950F50E0551F629F78
S1130420F001729FBB27F00DB11D639FAA27F00D49
S1130430B11DAA1F649F6627B00DA11D661F829F70
S11304402227B00DA11D621F739FB00DA11D621F55
S1130450839FA00D611D221F749F3327A00D611D72
S1130460231F849F600D211D822F762F6A2F112454
S11304709F5750409AF0F1F088234AF0EE0FFF1F87
S1130480BB1F661F771F881F91505040A9F79E3FDE
S1130490510580F00C9461020C94EE015F3FE4F38B
S11304A0983ED4F3869577956795B795F795E79534
S11304B09F5FC1F7FE2B880F911D9695879597F93D
S11304C0089597F99F6780E870E060E008959FEFD2
S11304D080EC089500240A941616170618060906D7
S11304E0089500240A9412161306140605060895A6
S11304F0092E0394000C11F4882352F0BB0F40F42E
S1130500BF2B11F460FF04C06F5F7F4F8F4F9F4F6D
S10905100895F894FFCFEA
S9030000FC
